:020000040000FA
:100000000128831603138501860187018901F030D9
:10001000880083160313C230810083120313850105
:1000200086018701880189012B2047200E30880036
:100030000030B00098200D3088000130B0009820CA
:100040000B3088000230B000982007308800033061
:10005000B0009820162883120313003086000C305D
:10006000870002308600000000308600FF30AB20A1
:10007000080083120313003086000130870002302D
:1000800086000000003086000230AB2008005730A8
:1000900073206430AB20653073206430AB206C304B
:1000A00073206430AB20633073206430AB206F303A
:1000B00073206430AB206D3073206430AB2065302A
:1000C00073206430AB202E3073206430AB202E3090
:1000D00073206430AB202E3073206430AB200130AD
:1000E000BC20392016288700FF30880001308600A8
:1000F000033086000000013086000800820731349A
:100100003234333441343434353436344234373491
:100110003834393443342A34303423344434081ED8
:100120000034881E0134081F0234881F0334FF3452
:100130008F20B100FF3031060319AA28300830079C
:10014000B200320832073107B20032087E20732035
:100150009630AB20080083120313A5000530A600DB
:1001600083120313063081000B110B1DB528A60B5B
:10017000B028A50BAE28080083120313A500FA309F
:10018000AB20FA30AB20FA30AB20FA30AB20831230
:080190000313A50BBF280800B2
:02400E00F23F7F
:00000001FF
